:020000040800F2
:10000000484400205D020008371200085111000822
:10001000351200088D030008E116000800000000FA
:100020000000000000000000000000009D0100082A
:100030008F03000800000000F90100089912000871
:1000400077020008770200087702000877020008AC
:10005000770200087702000877020008770200089C
:10006000770200087702000877020008770200088C
:10007000770200087702000877020008770200087C
:10008000770200087702000877020008770200086C
:10009000770200087702000877020008770200085C
:1000A000770200084D130008770200087702000865
:1000B000770200087702000877020008770200083C
:1000C000770200087702000877020008770200082C
:1000D0007702000877020008D516000877020008AA
:1000E000770200087702000877020008770200080C
:1000F00077020008770200087702000877020008FC
:1001000077020008770200087702000877020008EB
:1001100077020008770200087702000877020008DB
:1001200077020008770200087702000877020008CB
:1001300077020008000000000000000077020008BD
:1001400077020008770200087702000877020008AB
:10015000770200087702000877020008770200089B
:10016000770200087702000877020008770200088B
:10017000770200087702000800000000000000007D
:100180007702000877020008DFF80CD000F0ECF8E6
:100190000048004721170008484400202C4B1968EC
:1001A0000868B0E8F04F80F30988BFF36F8F4FF015
:1001B000000080F3118870470000000008480068C4
:1001C000006880F308884FF0000080F3148862B65E
:1001D00061B6BFF34F8FBFF36F8F00DF00BF00BF6B
:1001E00008ED00E0DFF80C00016841F470010160E7
:1001F000704700BF88ED00E0EFF30980BFF36F8F19
:10020000134B1A681EF0100F08BF20ED108A20E96A
:10021000F04F106009B44FF0500080F31188BFF325
:100220004F8FBFF36F8F01F011FE4FF0000080F38E
:10023000118809BC19680868B0E8F04F1EF0100F6B
:1002400008BFB0EC108A80F30988BFF36F8F704746
:1002500018000020EFF30580704700000648804733
:1002600006480047FEE7FEE7FEE7FEE7FEE7FEE79B
:10027000FEE7FEE7FEE7FEE731130008890100080C
:100280002DE9F05F0546002092469B4688460646CB
:10029000814640241BE0284641464746224600F05E
:1002A00053F853465A46C01A914110D31146184686
:1002B000224600F03AF82D1A67EB01084F46224615
:1002C0000120002100F031F817EB00094E41201EFB
:1002D000A4F10104DFDC484631462A464346BDE826
:1002E000F09F40EA01039B0703D009E008C9121FF1
:1002F00008C0042AFAD203E011F8013B00F8013BE0
:10030000521EF9D27047D2B201E000F8012B491E0B
:10031000FBD270470022F6E710B513460A460446A2
:100320001946FFF7F0FF204610BD202A04DB203AD3
:1003300000FA02F1002070479140C2F1200320FA38
:1003400003F3194390407047202A04DB203A21FA36
:1003500002F00021704721FA02F3D040C2F12002DE
:100360009140084319467047064C074D06E0E06887
:1003700040F0010394E8070098471034AC42F6D3EC
:10038000FFF706FF3822000858220008FEE77047F2
:10039000704790F83510022903D080214165012073
:1003A0007047052180F835100068016821F00101CF
:1003B00001600020704700002DE9F84F00224FF047
:1003C000010803254FF00F0E0B6808FA02F42340D2
:1003D000A3426ED14E68012E05D0022E03D0112EFD
:1003E00001D0122E12D186684FEA420C05FA0CF7A2
:1003F000BE43CF6807FA0CF7374387604668A643C9
:100400000C79C4F30014944034434460C668570028
:1004100005FA07FC8C6826EA0C06BC403443C4602D
:100420004C68022C01D0122C13D1D40800EB8404A8
:10043000A346D4F8209054074FEAD46A0EFA0AF67D
:1004400029EA06090E6906FA0AF646EA0906CBF811
:10045000206006680C7926EA0C0604F00304BC4010
:10046000344304604C68E40065D5364C266846F495
:1004700080462660246822F0030604F48044009439
:10048000314C3444A446D4F808489607370F0EFA86
:1004900007F6B4432D4EB04201D1002624E02C4E85
:1004A000B04201D101261FE02A4EB04202D10226FD
:1004B0001AE040E0284EB04201D1032614E0274E56
:1004C000B04201D104260FE0254EB04201D10526ED
:1004D0000AE0244EB04201D1062605E0224EB04289
:1004E00001D1072600E00826BE402643CCF8086864
:1004F0001E4E34684F689C43FF0300D51C43346094
:100500001A4C241D26684F689E43BF0300D51E4326
:100510002660164E083634684F689C43FF0200D5AB
:100520001C433460114E0C3634684F689C43BF0244
:1005300000D51C433460521C102AFFF445AFBDE8BF
:10054000F88F0000443802400030014000000240B3
:100550000004024000080240000C0240001002406B
:100560000014024000180240001C0240003C014000
:100570000AB1816170470904FBE700000148806807
:10058000704700000800002002488168027811448A
:1005900081607047080000200B4810B5016841F4E5
:1005A00000710160016841F480610160016841F4FB
:1005B00080710160032000F08DF8002000F006F843
:1005C00000F03EF8002010BD003C024010B501468E
:1005D00088B00022192000F05DF8192000F04CF8D6
:1005E00013480024016841F001010160006805A979
:1005F00000F001000690684600F018F900F046F996
:100600000C490D4AB0FBF1F10C48491E026040F262
:10061000E732C0E90324C0E9011400F029FB10B15E
:10062000012008B010BD054800F03EFBF9E70000CE
:100630004438024040420F000000014018030020EF
:100640000C4882B0016841F480410160006800F408
:10065000804000900748001F016841F08051016010
:100660000068002200F0805000900F21901E02B020
:1006700000F010B844380240002809DB00F01F02E7
:10068000012191404009800000F1E020C0F80011F4
:1006900070470000F0B40E4B1B680C46C3F30223F6
:1006A000C3F10705042D00D90425191D072901D21E
:1006B000002300E0DB1E012606FA05F1491E214059
:1006C00099409E40761E16403143F0BC01F009B8B7
:1006D0000CED00E0064900F0070208684FF6FF0342
:1006E000184040EA0220034A1043086070470000A7
:1006F0000CED00E00000FA052DE9F0470E4605007C
:1007000065D0DFF81481D8F80000F7B200F00F00D0
:10071000B04207D288F80070D8F8000000F00F004F
:10072000B04254D128683D4C810712D5400703D50B
:10073000206840F4E05020602878000703D5206846
:1007400040F4604020602068A96820F0F000084371
:1007500020602878C0072DD0304968680839012802
:1007600012D0022813D0032811D009688907002964
:100770002DDA216821F0030101432160FFF7FEFE1D
:10078000814641F2883A0EE009688903EFE709687B
:100790008901ECE7FFF7F2FEA0EB0901514502D910
:1007A0000320BDE8F0872068696800F00C00B0EB1A
:1007B000810FEFD1D8F80010404601F00F01B1428F
:1007C00007D90770006800F00F00B04201D0012087
:1007D000E7E72878400705D52068E96820F4E0506D
:1007E000084320602878000706D52068296920F48E
:1007F000604040EAC100206000F058F82168084AD3
:10080000C1F30311515CC8400649086006480068FE
:10081000FFF7DCFE0020C4E7003C0240083802403D
:1008200010220008140000200C0000200F2202609B
:100830000C4A136803F003034360136803F0F003EA
:100840008360136803F4E053C36012684FF4E0530D
:1008500003EAD20202610448006800F00F00086059
:100860007047000008380240003C02400448054937
:1008700000680968044AC1F38221515CC84070478E
:1008800014000020083802402022000804480549CE
:1008900000680968044AC1F34231515CC84070479E
:1008A000140000200838024020220008154810B526
:1008B000006810F00C02144813D01449042A0FD019
:1008C000082A0ED10F4C241F2268236802F03F0231
:1008D0005B0207D52068C0F38810A0FB010106E089
:1008E000084610BD2168C1F38811A1FB0001002357
:1008F000FFF7C6FC2168C1F30141491C4900B0FB68
:10090000F1F010BD083802400024F40040787D0169
:100910002DE9F84F040076D02078DFF838A3CE4DCB
:10092000C00749D0DAF800105046C1F3810101290F
:1009300008D00068C0F3810002280AD1281D006891
:10094000400206D52868800336D560680028E2D0CA
:1009500032E06068B0F5803F10D0B0F5A02F286875
:1009600010D020F480302860286820F4802028608F
:100970006068A0B1FFF702FE06460CE0286840F46C
:100980008030F4E740F480202860F7E7FFF7F6FDB9
:10099000801B642873D828688003F7D50CE0FFF724
:1009A000EDFD064605E000BFFFF7E8FD801B64286B
:1009B000F0D828688003F7D42078DFF8A082800779
:1009C0004FF000093ED5DAF80010504611F00C0F38
:1009D00009D00068C0F3810002280BD19D48001F98
:1009E0000068400206D42868800715D5E068012811
:1009F00009D111E0E068B8B10120C8F80000FFF7A4
:100A0000BDFD064605E020E1FFF7B8FD801B02288A
:100A1000C0D828688007F7D52868216920F0F80039
:100A200040EAC10028600DE0C8F80090FFF7A6FD7D
:100A3000064604E0FFF7A2FD801B02281FD82868A5
:100A40008007F7D42078000722D5824E8448616958
:100A50006C3671B101210160FFF790FD074604E09B
:100A6000FFF78CFDC01B022809D830688007F7D536
:100A70000EE0C0F80090FFF781FD074605E082E038
:100A8000FFF77CFDC01B02287DD830688007F7D4B3
:100A90002078400768D5DFF8BCB100270BF1380B90
:100AA000DBF80000C0000BD4DBF8001041F08051EF
:100AB000CBF80010DBF80000012700F08050009018
:100AC000684E3068C00510D4306840F480703060E3
:100AD000FFF754FD009005E0FFF750FD0099401A24
:100AE000022850D83068C005F6D55A4EA06868363E
:100AF00001280FD00528306810D020F001003060A8
:100B0000306820F004003060A068B8B1FFF736FD0F
:100B100000900FE0306840F00100F4E740F004007E
:100B20003060F7E7FFF72AFD0099411A41F288305B
:100B3000814266D830688007F4D50EE0FFF71EFDCD
:100B4000009007E0FFF71AFD0099411A41F2883042
:100B5000814256D830688007F4D42FB1DBF80010FA
:100B600021F08051CBF80010A069D0B3DAF8002052
:100B70005146C2F38102022A4AD00228484607D0D1
:100B8000C8F8600000E03CE0FFF7F8FC04463BE0FA
:100B90004746C8F86000FFF7F1FC064605E000BFD5
:100BA000FFF7ECFC801B02282BD828688001F7D4C3
:100BB000D4E907010843A16A2B4A490802EB014125
:100BC000626A41EA8211084394F82C1040EA0161FC
:100BD0002048001F016001203866FFF7CFFC044663
:100BE00005E034E0FFF7CAFC001B022809D828689A
:100BF0008001F7D52BE000BFFFF7C0FC001B0228E7
:100C000002D90320BDE8F88F28688001F4D41EE0E3
:100C10000128F7D00868E26900F48001914214D1FC
:100C2000226A00F03F0191420FD147F6C071626A1B
:100C30000140914209D1A26A00F44031914204D1AD
:100C4000E16A00F07060884201D00120DAE70020FC
:100C5000D8E7000008380240003802400000474250
:100C6000800E4742007000400000FFFF7047704751
:100C700010B5040003D094F83D0010B107E0012046
:100C800010BD002084F83C00204600F00CF8022043
:100C900084F83D00211D206800F05EFB012084F8EF
:100CA0003D00002010BD70470168CA6842F0010293
:100CB000CA600068816801F00701062903D0016855
:100CC00041F00101016000207047704770B5044693
:100CD000006801694FF00005C943890715D4C16850
:100CE000C943890711D4E91E0161012020772068DA
:100CF00080698007204602D0FFF7E7FF04E000F09C
:100D000098F8204600F096F8257720680169C943D5
:100D1000490717D4C168C943490713D46FF00401C8
:100D20000161022020772068806910F4407F20460E
:100D300002D0FFF7CAFF04E000F07BF8204600F085
:100D400079F8257720680169C943090716D4C16875
:100D5000C943090712D46FF008010161042020770C
:100D60002068C0698007204602D0FFF7AEFF04E08C
:100D700000F05FF8204600F05DF8257720680169F3
:100D8000C943C90617D4C168C943C90613D46FF053
:100D900010010161082020772068C06910F4407FAD
:100DA000204602D0FFF791FF04E000F042F8204611
:100DB00000F040F8257720680169C943C90708D1C8
:100DC000C168C943C90704D1891E0161204600F0EA
:100DD00033F820680169C943090609D4C168C943C9
:100DE000090605D46FF0800101612046FFF73EFF40
:100DF00020680169C943490609D4C168C943490645
:100E000005D46FF040010161204600F01FF8206812
:100E10000169C94389060BD4C168C943890607D44F
:100E20006FF0200101612046BDE87040FFF71FBF51
:100E300070BD70477047000000680349884201D1C7
:100E4000FFF7A2BB704700000000014070477047E9
:100E500070B5026804461068D168536910F00F0F2E
:100E600052D003F0010501F490762E435FD0C20703
:100E700005D0CA0503D5E26B42F00102E2634207E6
:100E800005D5DA0703D0E26B42F00202E263820783
:100E900005D5DA0703D0E26B42F00402E2630207F1
:100EA00007D501F020022A4303D0E26B42F008028A
:100EB000E263E26B002A33D0800604D5880602D5AF
:100EC000204600F0C3FA20684069E16BC0F380104F
:100ED000090700D428B3204600F0AAFA2068416927
:100EE00049061AD5416921F040014161606BA0B10A
:100EF0001B490165606BFFF74CFA002810D0606B4E
:100F0000016DBDE870400847830610D58B060ED5ED
:100F10002046BDE8704000F099BA2046FFF797FFE1
:100F200070BD2046FFF793FF0020E06370BD03060D
:100F300006D50B0604D52046BDE8704000F066BB20
:100F40004006F3D54806F1D5D168204621F040018E
:100F5000D160202184F8391000F0F9F870BD00004C
:100F60002114000870B5040004D094F8390000255D
:100F700010B106E0012070BD84F83850204600F022
:100F800023F8242084F839002068C16821F4005136
:100F9000C160204600F0A6FA2068016921F4904162
:100FA00001612068416921F02A0141612068C1681E
:100FB00041F40051C160E563202084F8390084F8D1
:100FC0003A00002070BD000010B586B00446142120
:100FD0006846FFF79FF917492068884228D11648CC
:100FE000016841F400310160006800F400300590B0
:100FF00011481038016841F001010160006869463C
:1010000000F0010005900C200090022001900120CA
:10101000029003200390072004900848FFF7CCF9C2
:10102000002205212620FFF735FB2620FFF724FBB1
:1010300006B010BD004400404038024000000240AD
:1010400090F83A30202B22D1F9B1F2B190F8383033
:10105000012B1CD081628285C2850021C1632222BE
:1010600080F83A2080F838100168CA6842F480722B
:10107000CA6001684A6942F001024A610068C168B9
:1010800041F02001C160002070470120704702201C
:10109000704770472DE9F843044690F839001F4621
:1010A00016460D46202850D1B5B1AEB194F838009F
:1010B00001284AD0012084F838004FF00008C4F815
:1010C0003C80212084F83900FFF758FAA684814635
:1010D000E68484F8388026E00120BDE8F883E08CBF
:1010E000401EE084A0684B46B0F5805F4FF00002E0
:1010F0004FF080012046009703D000F0B8FAE8B91D
:101100000DE000F0B4FAC8B928882168C0F30800DF
:101110004860206908B16D1C05E0AD1C03E0216842
:1011200015F8010B4860E08C0028D8D14B4600220E
:1011300040212046009700F09AFA08B10320CCE73E
:10114000202084F839000020C7E70220C5E7704757
:10115000FEE7000010B58EB01C220B496846FFF771
:10116000C0F80021684600F0FAFA084C06491C2233
:1011700020601C3107A8FFF7B4F8002107A800F091
:10118000EEFA60600EB010BDD8210008000000200B
:1011900030B587B014216846FFF7BCF81548002425
:1011A000016841F080010160016801F08001059152
:1011B000016841F004010160016801F0040105913A
:1011C000016841F00101016000680B4D00F0010071
:1011D0000590002202212846FFF7CAF9022000905C
:1011E0000120CDE90104694628460394FFF7E4F89D
:1011F00007B030BD30380240000802400C4810B53E
:101200000A4901604FF4E1314160002181600C2204
:10121000C160C0E904128161C161FFF7A3FE00282B
:1012200003D0BDE81040FFF7B3B810BD0044004044
:10123000D8020020FEE770470D4C0E4D64230122BA
:101240000B490D48FFF726FF2078302804D10122F2
:1012500002212846FFF78CF92078312804D100229A
:1012600002212846FFF784F9012000F06CFAE5E737
:101270007800002000080240D80200200122044922
:101280000448FFF7DDFE012000F05DFAF6E70000FC
:1012900078000020D802002010B5502080F311887B
:1012A000BFF34F8FBFF36F8F00F0D0FE18B104492A
:1012B0004FF080500860002080F3118810BD0000BE
:1012C00004ED00E030B593B030216846FFF722F816
:1012D00014210CA8FFF71EF813480024016841F000
:1012E00080510160006800F0805011900F48016843
:1012F00041F4804101600068012500F480401190B4
:1013000028040694CDE900506846FFF701FB0F2042
:101310000C90CDE90D540F9400210CA81094FFF708
:10132000EBF913B030BD00004038024000700040BF
:101330000548016841F47001016003494FF0006005
:10134000803908607047000088ED00E00148FFF731
:10135000BDBC000018030020F0B50268254C264DE6
:10136000264E274F274B4FF0804CA04209D06045B6
:1013700007D0A84205D0B04203D0B84201D098426D
:1013800004D122F0700E4A6842EA0E02A0421BD03D
:10139000604519D0A84217D0B04215D0B84213D03A
:1013A000984211D0184DA8420ED0184DA8420BD02B
:1013B000174DA84208D0174DA84205D0164DA84297
:1013C00002D0164DA84203D122F44075CA682A43C0
:1013D0004D6922F080022A4302608A68C2620A686C
:1013E0008262A04201D0984201D1096901630121C2
:1013F0004161F0BD000001400004004000080040D1
:10140000000C004000040140004001400044014045
:101410000048014000180040001C0040002000402F
:1014200010B5806B0021C185C184FFF710FD10BD90
:101430000168CA6822F49072CA6001684A6922F0A1
:1014400001024A61202180F83A10704710B590F8E7
:101450003A10222901D0022010BD8168B1F5805FC9
:1014600011D00169002901681FD0496801F07F038C
:10147000816A4A1C82620B70C18D491E0904090CE5
:10148000C18518D02BE00269816A002A026852687F
:1014900005D0D2B20A80816A491C8162ECE7C2F3AE
:1014A00008020A80816A891CF7E74A68816A4B1C36
:1014B00083620A70E0E70168CA6822F02002CA600D
:1014C0000168CA6822F48072CA6001684A6922F021
:1014D00001024A61202180F83A10FFF7DAFD00206E
:1014E00010BD00002DE9F041044600680169E26882
:1014F00021F44051114301612169A068E269084368
:101500006169114308432168CA6849F20C639A4330
:101510000243CA6020684169A26921F44071114305
:101520004161E069192764253226B0F5004F354A3C
:10153000354920684FF0000806D0884201D090421B
:1015400036D1FFF7A3F935E0884201D0904202D1AD
:10155000FFF79CF901E0FFF789F961684A18A0FBE1
:10156000070148EB0803FEF78BFE0146B0FBF5F0E0
:101570000201B1FBF5F06FF01803584301EB800056
:1015800006EBC000B0FBF5F000F0F80002EB400203
:10159000B1FBF5F0584301EB800006EBC000B0FB57
:1015A000F5F000F00700216810448860BDE8F08184
:1015B000FFF75CF961688B0F8A00A0FB0701FEF75B
:1015C0005FFE0146B0FBF5F06FF01802504301EBEF
:1015D000800006EB0010B0FBF5F000F0F002B1FB6C
:1015E000F5F002EB0012B1FBF5F06FF01803584371
:1015F00001EB800006EB0010B0FBF5F000F00F00EF
:10160000D1E70000001401400010014090F83910AB
:10161000212901D0022070478168B1F5805F016AFD
:101620000BD04A1C0262026809785160C18C491EC5
:101630000904090CC1840ED017E009880268C1F3BF
:101640000801516001690029016A02D0491C016248
:10165000ECE7891CFBE70168CA6822F08002CA60D7
:101660000068C16841F04001C160002070472DE969
:10167000F041984617460E460446069D1DE0681C3C
:101680001BD02DB1FEF77AFFA0EB0800A84214D9B9
:101690002068C16821F4D071C1602068416921F0DF
:1016A00001014161202084F8390084F83A000020CB
:1016B00084F838000320BDE8F0812068006836EA2D
:1016C000000004D00020B842D9D00020F3E7012068
:1016D000F9E700000148FFF7BBBB0000D80200207B
:1016E000FEE70907090E002804DB00F1E02080F87E
:1016F0000014704700F00F0000F1E02080F8141D86
:10170000704702E008C8121F08C1002AFAD17047CA
:101710007047002001E001C1121F002AFBD1704771
:10172000FEF73AFFFFF7CEFDFFF732FDFFF766FD4C
:10173000FFF710FD00F00EF8FEE7014600208429B7
:1017400000D0C81C704710B500B9012000F01AFB8A
:10175000002010BD10B500F03BFB002010BD7FB590
:101760000D4604464169B0F9080081B1A16971B123
:10177000FFF7E3FFD4E905128DE80700D4E9001074
:101780002B46226900F037FC039004B070BDFFF7D0
:10179000D4FF03A9CDE90001208A2B4682B2D4E907
:1017A000001000F0FBFB012801D00020EDE70398BA
:1017B000EBE700002DE9F041184C0F46054666693D
:1017C0002068001D00F01AFA38B9206890F82C1033
:1017D00001208840A1698143A161681C07D137B10C
:1017E0002168BDE8F0410E48091D00F04BBA2068A1
:1017F0003544B5424560216805D2A068BDE8F04196
:10180000091D00F027BA6068091D00F023FA206B5B
:10181000854200D22563BDE8F08100001800002059
:10182000340400202DE9F041054600F037FA2E4C33
:101830002069401C206120682C4F10B1E06940B342
:101840002DE025602069012829D1002606EB8600BD
:1018500007EB800000F0F0F9761C072EF6D3234842
:101860008C3000F0E9F92148A03000F0E5F91F487C
:10187000B43000F0E1F91D48C83000F0DDF91B4834
:10188000DC3000F0D9F919488C3060601430A06069
:1018900005E02068E96AC06A884200D82560E06AED
:1018A000401CE062E96A0120A26988401043A061FF
:1018B00001EB810007EB8000291D00F0E3F900F047
:1018C0000DFAE06900280CD02068E96AC06A8842F5
:1018D00007D207494FF080500860BFF34F8FBFF326
:1018E0006F8FBDE8F0810000180000205803002031
:1018F00004ED00E010B5044690F8510058B10128FD
:101900000CD002280FD0502080F31188BFF34F8FE6
:10191000BFF36F8FFEE7206B00F0F4F92046BDE8BF
:10192000104000F0EFB910BD10484FF4705142075D
:1019300006D0C01D0D4920F00700411AC1F57051B5
:101940000B4A00230144C2E900030839103A21F090
:10195000070111604B600B600B1AC0E90013936024
:101960004FF000405360D0607047000048040020F2
:1019700064000020144E154CA6F1C8074FF08058A3
:10198000DFF84C9012E000BF00F088F9F068C568FD
:10199000281D00F033F92069401E2061E068401ED8
:1019A000E06000F09BF92846FFF7A4FFE0680028FC
:1019B000EAD138680128F9D9C9F80080BFF34F8F00
:1019C000BFF36F8FF2E70000200400201800002012
:1019D00004ED00E02DE9F0479A46DDE909848146EF
:1019E0006FF00303206B03EB82021044089D20F08C
:1019F0000706700707D0502080F31188BFF34F8F80
:101A0000BFF36F8FFEE723180A5C83F834200A5C6B
:101A100012B1401C1028F6D3002784F84370072D1C
:101A200000D30625E562C4E91157201D00F00FF927
:101A300004F1180000F00BF92461C5F1070064629D
:101A4000A061E76484F8507052464946304600F081
:101A5000BFF82060B8F1000F01D0C8F80040BDE821
:101A6000F087000030B5114900E011460A68824253
:101A7000FBD34B685C18844203D14068184448602B
:101A8000084643681C18944209D1084C103C24684D
:101A9000A24209D052681A4442600A681268026081
:101AA000814200D0086030BD0460F9E76400002086
:101AB00006484168096829B14168C968C968496828
:101AC000016370474FF0FF31FAE700001800002073
:101AD00008484068401C4FF0500080F3118804D043
:101AE000BFF34F8FBFF36F8FFEE7BFF34F8FBFF38F
:101AF0006F8FFEE76C0000202DE9F04105460027BE
:101B000000F09CF9314E306808B9FFF70DFFF0681E
:101B100005424BD1C5B3083568070ED005F0070064
:101B2000C0F108000544680707D0502080F31188F1
:101B3000BFF34F8FBFF36F8FFEE72DB37068854201
:101B400034D82248103001460C6801E020460C468B
:101B50006168A94202D221680029F7D131688C421C
:101B600024D007682168016060680837411B10298C
:101B70000FD96019420708D0502080F31188BFF3B5
:101B80004F8FBFF36F8FFEE710E041606560FFF796
:101B900069FF61687068401A7060B268904200D254
:101BA000B060F06801430020C4E9000100F0B2FA1F
:101BB000780707D0502080F31188BFF34F8FBFF311
:101BC0006F8FFEE73846BDE8F0810000540000202A
:101BD00010B5031F4FF080741C601B1F21F0010122
:101BE0001960191F044B0B6014390A60091F6FF04C
:101BF000020244380A6010BDD11A0008D0E901324F
:101C000001699A60D0E901235A604A68824201D191
:101C100082684A60002202610868401E0860086805
:101C200070470000034B036003F1540008608020FC
:101C3000106070478400002000F108014FF0FF326F
:101C4000C0E90112C16001610021016070470021FB
:101C50000161704730B50B685A1C02D000F10802D0
:101C600002E0026904E02246546825689D42FAD9E0
:101C700053684B6099608A60516008610168491C33
:101C8000016030BD42684A6093688B609368596018
:101C9000916008610168491C01607047502080F321
:101CA0001188BFF34F8FBFF36F8F0A494868401CFC
:101CB000486001280CD10848006810F0FF0F07D0D9
:101CC000502080F31188BFF34F8FBFF36F8FFEE773
:101CD000704700006C00002004ED00E008494868EF
:101CE00028B1401E486001D180F311887047502010
:101CF00080F31188BFF34F8FBFF36F8FFEE70000B3
:101D00006C00002070B5002827D0144DA0F1080405
:101D10006168E868014207D1502080F31188BFF361
:101D20004F8FBFF36F8FFEE722683AB1502080F3E8
:101D30001188BFF34F8FBFF36F8FFEE78143616060
:101D400000F07CF860686968084468602046FFF726
:101D500089FEBDE8704000F0DDB970BD5400002080
:101D60004FF0E02000210161816105494FF47A7252
:101D70000968B1FBF2F1491E416107210161704719
:101D80001400002010B5020014D00F48806B38B149
:101D9000502080F31188BFF34F8FBFF36F8FFEE7A2
:101DA00000F04CF800211046FFF704FD00F0B2F9F6
:101DB000002807D105494FF080500860BFF34F8FCE
:101DC000BFF36F8F10BD00001800002004ED00E08D
:101DD00010B586B00024039405AA04A903A80494AE
:101DE000FFF720FFDDE903010094CDE90110002396
:101DF0000EA11048059A00F0FEF80F49002848632C
:101E000011D0502080F31188BFF34F8FBFF36F8F35
:101E10004FF0FF3008630120C8614C6106B0BDE897
:101E2000104000F041B806B010BD000049444C45D8
:101E30000000000075190008180000200248816B9E
:101E4000491C816370470000180000201448816B12
:101E500011B1012141627047002141628169B1FAEB
:101E600081F1C1F11F0101EB81020E4951F82230CD
:101E70006BB101EB820101F108034A6852684A60C4
:101E80009A4201D152684A60D1680160704750207F
:101E900080F31188BFF34F8FBFF36F8FFEE7000011
:101EA00018000020580300201CB537480168374A45
:101EB000914207D1502080F31188BFF34F8FBFF3B9
:101EC0006F8FFEE700683149491E884207D15020D4
:101ED00080F31188BFF34F8FBFF36F8FFEE72C495C
:101EE00008780190FF20087008788DF800009DF8B0
:101EF00000009DF8002000F0F000904207D0502034
:101F000080F31188BFF34F8FBFF36F8FFEE79DF80B
:101F10000000204B00F0500018700720986005E08A
:101F20009DF8002052008DF80020401E9DF80020F2
:101F30001206F5D49860032807D0502080F311884A
:101F4000BFF34F8FBFF36F8FFEE74FF44070986081
:101F5000019808700C482030016841F4700101605C
:101F6000016841F070410160FFF7FAFE00205860FF
:101F7000FEF738F90848016841F040410160FEF77A
:101F80001DF900201CBD000000ED00E071C20F41F2
:101F900000E400E06C00002034EF00E02DE9FF5F7A
:101FA0008346DDE90E87994616468A469000FFF77C
:101FB000A3FD05001CD05420FFF79EFD040014D0A3
:101FC0000020256384F85100CDE90240CDE9008767
:101FD0004B46324651465846FFF7FCFC2046FFF779
:101FE00021FC012004B0BDE8F09F2846FFF78AFEDF
:101FF0004FF0FF30F6E7F0B585B0DDE90B640A9DE0
:10200000A6B1DCB1542700972663022684F85160FC
:10201000002604AFCDE90246CDE90057FFF7DAFC10
:102020002046FFF7FFFB049805B0F0BD502080F379
:102030001188BFF34F8FBFF36F8FFEE7502080F3FF
:102040001188BFF34F8FBFF36F8FFEE72DE9F0418B
:102050002E4C0027A06B40B1206A401C2062606AB1
:1020600000B101273846BDE8F0816669761C6661DB
:1020700013D16068006838B1502080F31188BFF335
:102080004F8FBFF36F8FFEE76068A1686160A0604B
:10209000A06A401CA062FFF70BFD206BDFF8708088
:1020A000864209D36068006880B16068C068C5680E
:1020B000686886420DD220632068C06A00EB800108
:1020C00058F821000128CAD90127C8E74FF0FF308E
:1020D000F1E7281DFFF792FDA86A18B105F1180075
:1020E000FFF78CFDE86A0121A26981401143A161DB
:1020F00000EB800108EB8100291DFFF7C3FDE86AB2
:102100002168C96A8842CDD30127CBE71800002097
:10211000580300202DE9F0472C4D00242746A86BDA
:1021200038B1FFF7BBFDA86B401EA863A86B40B198
:1021300046E0502080F31188BFF34F8FBFF36F8FBD
:10214000FEE72969224E0120D1B3A6F1B4098046E9
:102150003068E8B1F068C46804F11800FFF74EFD7C
:10216000201DFFF74BFDE06AAA6908FA00F1114350
:10217000A96100EB800109EB8100211DFFF782FDC1
:10218000E06A2968C96A8842E2D3C5F82480DFE79B
:102190000CB1FFF78DFC2C6A44B14646FFF756FFA1
:1021A00000B16E62641EF9D100202862686A38B1FD
:1021B0000849012738070860BFF34F8FBFF36F8FBF
:1021C000FFF78CFD3846BDE8F087000018000020BE
:1021D0000C04002004ED00E0282200083912000859
:1021E000000000000000000080000000000000006F
:1021F00000000000302200087D12000800000000EE
:10220000000000008000000000000000000000004E
:102210000000000000000000010203040607080996
:1022200000000000010203045461736B31000000E0
:102230005461736B32000000582200080000002037
:102240007800000002170008D02200087800002063
:10225000D04300001217000800000000000000003A
:102260000100000010000000000000000024F40045
:10227000000000000000000000000000000000005E
:10228000000000000000000000000000000000004E
:10229000000000000000000000000000000000003E
:1022A000000000000000000000000000000000002E
:1022B000000000000000000000000000000000001E
:1022C0000000000000000000AAAAAAAA0000000066
:040000050800018965
:00000001FF
